:100000000C943D000C9465000C9465000C94650004
:100010000C9465000C9465000C9465000C946500CC
:100020000C9465000C9465000C9465000C946500BC
:100030000C9465000C9465000C9401020C9465000E
:100040000C9465000C9465000C9465000C9465009C
:100050000C9465000C9465000C9465000C9465008C
:100060000C9465000C94650066016B02C102C50228
:10007000AF03AE053A0648063E0611241FBECFEF79
:10008000D8E0DEBFCDBF11E0A0E0B1E0EEE5FDE0DD
:1000900002C005900D92AC31B107D9F721E0ACE177
:1000A000B1E001C01D92A738B207E1F710E0CCE340
:1000B000D0E004C02197FE010E949C06C433D10702
:1000C000C9F70E94F7000C94A2060C94000081E688
:1000D00091E00E946F0240E050E06FEF70E081E637
:1000E00091E00E949C0248EE53E060E070E080E600
:1000F00091E00E94CD0140E050E061E07FEF81E6B9
:1001000091E00E949C0248EE53E060E070E080E6DF
:1001100091E00E94CD014FEF50E060E070E081E699
:1001200091E00E949C0248EE53E060E070E080E6BF
:1001300091E00E94CD0141E05FEF60E070E081E678
:1001400091E00E949C0248EE53E060E070E080E69F
:1001500091E00E94CD014FEF50E06FEF70E081E63B
:1001600091E00E949C0248EE53E060E070E080E67F
:1001700091E00E94CD0141E05FEF61E07FEF81E619
:1001800091E00E949C0248EE53E060E070E080E65F
:1001900091E00E94CD0141E05FEF6FEF70E081E6FA
:1001A00091E00E949C0248EE53E060E070E080E63F
:1001B00091E00E94CD014FEF50E061E07FEF81E6DA
:1001C00091E00E949C0248EE53E060E070E080E61F
:1001D00091E00E94CD0140E050E060E070E081E6F7
:1001E00091E00E949C0281E691E00C9490022D988F
:1001F0000E94CB02C8E02D9A44E150E060E070E03C
:1002000080E691E00E94CD012D9840E550E060E04D
:1002100070E080E691E00E94CD01C15061F70E943C
:1002200067008BE790E0909368018093670192BD2F
:1002300081BD84E880BDFA9AF99AF99B02C000005A
:10024000FCCF8091670190916801F99B02C000008A
:10025000FCCF92BD81BDF89A80B5809366012D9A3E
:100260004AE050E060E070E080E691E00E94CD015D
:100270002D984AE550E060E070E080E691E00E9451
:10028000CD0189E691E00E945703C12CD12C760163
:10029000B701A6018EE791E00E94CD0560E071E014
:1002A0008EE791E00E94CB058FEFC81AD80AE80AC2
:1002B000F80A88E0C816D104E104F10449F762E0C5
:1002C00071E08EE791E00E94CB05C9CF259A089591
:1002D0001092C5008DE48093C400E2ECF0E08081D0
:1002E00086608083E1ECF0E08081886180830895FE
:1002F00008956093C6008091C00085FD02C0000093
:10030000FACF089580E090E0FC0123E0EE0FFF1F9C
:100310002A95E1F7E45EFE4F118210821382128269
:10032000158214821682178201968830910561F732
:1003300010925C0110925D0110925E0110925F01BB
:1003400084B5826084BD8AEB87BD83E085BD8091E2
:100350006E00826080936E0078940895CF93DF934F
:1003600000D000D0CDB7DEB7F89480915C019091B9
:100370005D01A0915E01B0915F0189839A83AB8397
:10038000BC83789469817A818B819C810F900F90D6
:100390000F900F90DF91CF910895CF92DF92EF925F
:1003A000FF920F931F93CF93DF9300D000D0CDB770
:1003B000DEB78C016A017B010E94AE01C60ED71E1A
:1003C000E81EF91EC982DA82EB82FC82C8010E9413
:1003D000AE01C980DA80EB80FC806C157D058E054E
:1003E0009F0510F40000F2CF0F900F900F900F9028
:1003F000DF91CF911F910F91FF90EF90DF90CF9001
:1004000008951F920F920FB60F9211242F933F93CE
:100410004F935F936F937F938F939F93AF93BF930C
:10042000CF93DF93EF93FF93C0E0D0E0CE0123E0C2
:10043000880F991F2A95E1F7FC01E45EFE4F2481A5
:100440003581232B31F084819581019795838483B5
:1004500018C0228133813583248326812F3F19F0F0
:1004600026812F5F2683FC01E45EFE4F8781811188
:1004700008C080819181892B21F00190F081E02DCD
:1004800009952196C830D10589F680915C0190913B
:100490005D01A0915E01B0915F010196A11DB11DAA
:1004A00080935C0190935D01A0935E01B0935F0126
:1004B000FF91EF91DF91CF91BF91AF919F918F917C
:1004C0007F916F915F914F913F912F910F900FBE50
:1004D0000F901F90189580E691E00C948201109285
:1004E00089001092880010928B0010928A00E0E838
:1004F000F0E080EA8083808181608083E1E8F0E041
:1005000088E080838081826080835D9A5E982898ED
:100510000895559A569A209A219A229A0C946F021D
:10052000109289001092880010928B0010928A001D
:100530005D985E982898089577FF05C02898719572
:100540006195710901C0289A6F3F710519F014F087
:100550006FEF70E057FF05C05E98519541955109C6
:1005600001C05E9A70938B0060938A004F3F5105E3
:1005700019F014F04FEF50E0509389004093880039
:10058000089581E691E00C948902E6E6F1E010829C
:10059000128211820895CF92DF92EF92FF92CF9351
:1005A000DF93F99B02C00000FCCF80EE93E092BD88
:1005B00081BDF89AC0B5CF5F92BD81BDC0BDFA9A2A
:1005C000F99AF99B02C00000FCCFC0FF12C0F8945A
:1005D00081E691E00E94900283B7817F846083BFAF
:1005E00083B7816083BF889583B78E7F83BF8895EB
:1005F000EECFD0E240E050E0BA016A017B01CC0CC2
:10060000DD1CEE1CFF1C80E00E94350381709927E1
:10061000AC01990F660B770B4C295D296E297F2958
:10062000D15059F74C0F511D611D711D8FE791E09D
:10063000DF91CF91FF90EF90DF90CF900C94420626
:10064000399A41989C01205F3F4F47E050E0FC0100
:1006500041935193CF01E217F307C9F780E48093E8
:100660007C0087E880937A000895883011F488E44C
:1006700001C0806480937C0080917A0080648093C4
:100680007A0080917A0086FF02C00000FACF809144
:100690007A00806480937A0080917A0086FF02C09D
:1006A0000000FACF80917800909179000895CF935F
:1006B000DF93EC0180E00E9435039987888787E00B
:1006C0000E9435039B878A8785E00E9435039983C2
:1006D000888386E00E9435039B838A8383E00E949F
:1006E00035039D838C8382E00E9435039F838E8334
:1006F000419A8BE0815011F00000FCCF85E00E9410
:10070000350328813981821B930B9983888386E086
:100710000E9435032A813B81821B930B9B838A8332
:1007200083E00E9435032C813D81821B930B9D83C6
:100730008C8382E00E9435032E813F81821B930BC4
:100740009F838E8380E00E94350328853985821B34
:10075000930B9D878C874198DF91CF91089589E60F
:1007600091E00C942003FF920F931F93CF93DF939C
:10077000EC01F62E042F122FE881F9810190F0810F
:10078000E02D0995E881F9810480F581E02D6F2D38
:10079000CE010995E881F9810480F581E02D602F73
:1007A000CE010995E881F9810480F581E02D612F62
:1007B000CE010995E881F9810280F381E02DCE0117
:1007C000DF91CF911F910F91FF900994EF92FF92CB
:1007D0000F931F93CF93DF93EC01E62EF42E122F8D
:1007E000032FE881F9810190F081E02D0995E881DE
:1007F000F9810480F581E02D6E2DCE010995E88107
:10080000F9810480F581E02D6F2DCE010995E881F5
:10081000F9810480F581E02D602FCE010995E881F2
:10082000F9810480F581E02D612FCE010995E881E1
:10083000F9810280F381E02DCE01DF91CF911F91EC
:100840000F91FF90EF900994CF92DF92EF92FF9279
:100850000F931F93CF93DF93EC01E62EF42E6901E3
:10086000E881F9810190F081E02D0995E881F98115
:100870000480F581E02D6E2DCE010995E881F98186
:100880000480F581E02D6F2DCE01099576010C0DC8
:100890001D1DE881F981E016F10649F0D7016D913F
:1008A0007D010480F581E02DCE010995F2CF028013
:1008B000F381E02DCE01DF91CF911F910F91FF9039
:1008C000EF90DF90CF9009940F931F93CF93DF9316
:1008D000EC01162F042FE881F9810190F081E02DC1
:1008E0000995E881F9810480F581E02D612FCE0121
:1008F0000995E881F9810480F581E02D602FCE0112
:100900000995E881F9810190F081E02DCE010995EA
:10091000612F6160E881F9810480F581E02DCE01CD
:100920000995E881F9810680F781E02D60E0CE012C
:100930000995182FE881F9810280F381E02DCE011D
:100940000995812FDF91CF911F910F9108950F93FA
:100950001F93CF93DF93EC01162F042FE881F981C9
:100960000190F081E02D0995E881F9810480F581FD
:10097000E02D612FCE010995E881F9810480F58190
:10098000E02D602FCE010995E881F9810190F08179
:10099000E02DCE010995612F6160E881F981048025
:1009A000F581E02DCE010995E881F9810680F78176
:1009B000E02D61E0CE010995082F10E0102F0027EF
:1009C000E881F9810680F781E02D60E0CE0109958C
:1009D000082BE881F9810280F381E02DCE01099591
:1009E000C801DF91CF911F910F910895CF92DF92AF
:1009F000EF92FF920F931F93CF93DF93EC01F62EAC
:100A0000E42E6901E881F9810190F081E02D0995DA
:100A1000E881F9810480F581E02D6F2DCE010995E3
:100A2000E881F9810480F581E02D6E2DCE010995D4
:100A3000E881F9810190F081E02DCE0109956F2DBB
:100A40006160E881F9810480F581E02DCE0109958E
:100A500076010C0D1D1DE881F981E016F10651F0BB
:100A60000680F781E02D61E0CE010995F7018193C1
:100A70007F01F1CF0280F381E02DCE01DF91CF9194
:100A80001F910F91FF90EF90DF90CF9009948AE033
:100A900000008150E9F70895239A249A2398249A14
:100AA000239824980C944705239824982398249AF3
:100AB000239A24980C944705CF93DF93D62FC8E050
:100AC000239A0E944705D7FF02C0249801C0249AA8
:100AD0000E94470523980E944705DD0FC15081F70A
:100AE000239A0E94470524980E94470523980E9454
:100AF0004705C3B1239A0E944705C295C17081E0A2
:100B00008C27DF91CF9108951F93CF93DF93162FFA
:100B10002498239A0E944705D8E0C0E0CC0F239880
:100B20000E9447051C99C160239A0E944705D15035
:100B3000A9F7112311F0249A01C024980E944705B7
:100B400023980E944705239A0E94470524980E94F3
:100B500047058C2FDF91CF911F91089588E091E098
:100B600090937B0180937A01249823982C982B985A
:100B700008950F931F93CF93DF938C01EB0169913D
:100B8000662321F0C8010E947901F9CFDF91CF914E
:100B90001F910F9108950C94B9058F929F92AF9277
:100BA000BF92CF92DF92EF92FF920F931F93CF935A
:100BB000DF93CDB7DEB72C970FB6F894DEBF0FBE2C
:100BC000CDBF7C0177FF09C0709560955095419528
:100BD0005F4F6F4F7F4F01E001C000E01C861AE0BD
:100BE0009AE0892E912CA12CB12CCC24C394D12C29
:100BF000CC0EDD1EC10ED11CCB01BA01A5019401A2
:100C00000E947D06942F852F605DF6016083A90107
:100C1000692F782F8FEF810F4115510561057105FF
:100C200011F0182FE2CF002349F0E1E0F0E0EC0FE3
:100C3000FD1FE80FF11D9DE29083182F61E070E029
:100C40006C0F7D1F610F711DC7010E94B9052C96A5
:100C50000FB6F894DEBF0FBECDBFDF91CF911F91CD
:100C60000F91FF90EF90DF90CF90BF90AF909F904B
:100C70008F9008958EE791E00C9468018EE791E0E3
:100C80000C947801FC01408351836283738308953F
:100C9000EFE7F1E081E090E0A0E0B0E080839183B5
:100CA000A283B38382E090E0A0E0B0E084839583E8
:100CB000A683B7830895A1E21A2EAA1BBB1BFD01D0
:100CC0000DC0AA1FBB1FEE1FFF1FA217B307E4072B
:100CD000F50720F0A21BB30BE40BF50B661F771F83
:100CE000881F991F1A9469F7609570958095909563
:100CF0009B01AC01BD01CF010895052E97FB1EF4A9
:100D000000940E94940657FD07D00E945B0607FCE2
:100D100003D04EF40C94940650954095309521954F
:100D20003F4F4F4F5F4F0895909580957095619517
:100D30007F4F8F4F9F4F0895EE0FFF1F0590F49147
:100D4000E02D099410E0CCE3D0E004C0FE010E9445
:0E0D50009C062196CD33D107C9F7F894FFCF4A
:100D5E0020000A000000000054054C055C058405C7
:0C0D6E00B303E60324046404A704F604A5
:00000001FF
